{
  "contractName": "MessageBoard",
  "abi": [
    {
      "constant": true,
      "inputs": [
        {
          "name": "",
          "type": "address"
        }
      ],
      "name": "messages",
      "outputs": [
        {
          "name": "account",
          "type": "address"
        },
        {
          "name": "content",
          "type": "string"
        }
      ],
      "payable": false,
      "stateMutability": "view",
      "type": "function"
    },
    {
      "constant": false,
      "inputs": [
        {
          "name": "_account",
          "type": "address"
        },
        {
          "name": "_content",
          "type": "string"
        }
      ],
      "name": "setMessage",
      "outputs": [],
      "payable": false,
      "stateMutability": "nonpayable",
      "type": "function"
    },
    {
      "constant": true,
      "inputs": [
        {
          "name": "_account",
          "type": "address"
        }
      ],
      "name": "getMessageContent",
      "outputs": [
        {
          "name": "",
          "type": "string"
        }
      ],
      "payable": false,
      "stateMutability": "view",
      "type": "function"
    },
    {
      "constant": true,
      "inputs": [],
      "name": "getCounts",
      "outputs": [
        {
          "name": "",
          "type": "uint256"
        }
      ],
      "payable": false,
      "stateMutability": "view",
      "type": "function"
    }
  ],
  "bytecode": "0x6060604052341561000f57600080fd5b6106948061001e6000396000f300606060405260043610610062576000357c0100000000000000000000000000000000000000000000000000000000900463ffffffff1680635b764ca3146100675780635fdd59f814610119578063a5373899146101fe578063e9aa460f14610227575b600080fd5b341561007257600080fd5b61009e600480803573ffffffffffffffffffffffffffffffffffffffff169060200190919050506102a3565b6040518080602001828103825283818151815260200191508051906020019080838360005b838110156100de5780820151818401526020810190506100c3565b50505050905090810190601f16801561010b5780820380516001836020036101000a031916815260200191505b509250505060405180910390f35b341561012457600080fd5b610150600480803573ffffffffffffffffffffffffffffffffffffffff16906020019091905050610392565b604051808373ffffffffffffffffffffffffffffffffffffffff1673ffffffffffffffffffffffffffffffffffffffff16815260200180602001828103825283818151815260200191508051906020019080838360005b838110156101c25780820151818401526020810190506101a7565b50505050905090810190601f1680156101ef5780820380516001836020036101000a031916815260200191505b50935050505060405180910390f35b341561020957600080fd5b61021161046e565b6040518082815260200191505060405180910390f35b341561023257600080fd5b6102a1600480803573ffffffffffffffffffffffffffffffffffffffff1690602001909190803590602001908201803590602001908080601f0160208091040260200160405190810160405280939291908181526020018383808284378201915050505050509190505061047b565b005b6102ab610583565b60008060008473ffffffffffffffffffffffffffffffffffffffff1673ffffffffffffffffffffffffffffffffffffffff1681526020019081526020016000209050806001018054600181600116156101000203166002900480601f0160208091040260200160405190810160405280929190818152602001828054600181600116156101000203166002900480156103855780601f1061035a57610100808354040283529160200191610385565b820191906000526020600020905b81548152906001019060200180831161036857829003601f168201915b5050505050915050919050565b60006020528060005260406000206000915090508060000160009054906101000a900473ffffffffffffffffffffffffffffffffffffffff1690806001018054600181600116156101000203166002900480601f0160208091040260200160405190810160405280929190818152602001828054600181600116156101000203166002900480156104645780601f1061043957610100808354040283529160200191610464565b820191906000526020600020905b81548152906001019060200180831161044757829003601f168201915b5050505050905082565b6000600180549050905090565b60008060008473ffffffffffffffffffffffffffffffffffffffff1673ffffffffffffffffffffffffffffffffffffffff1681526020019081526020016000209050818160010190805190602001906104d5929190610597565b50828160000160006101000a81548173ffffffffffffffffffffffffffffffffffffffff021916908373ffffffffffffffffffffffffffffffffffffffff160217905550600180805480600101828161052e9190610617565b9160005260206000209001600086909190916101000a81548173ffffffffffffffffffffffffffffffffffffffff021916908373ffffffffffffffffffffffffffffffffffffffff1602179055505050505050565b602060405190810160405280600081525090565b828054600181600116156101000203166002900490600052602060002090601f016020900481019282601f106105d857805160ff1916838001178555610606565b82800160010185558215610606579182015b828111156106055782518255916020019190600101906105ea565b5b5090506106139190610643565b5090565b81548183558181151161063e5781836000526020600020918201910161063d9190610643565b5b505050565b61066591905b80821115610661576000816000905550600101610649565b5090565b905600a165627a7a72305820582bffe0d602317044de43ea520d2bb4a1a069133ad82aedf422e5ba7cfba9720029",
  "source": "pragma solidity ^0.4.17;\n\ncontract MessageBoard {\n\n  /*\n      暂时先不添加TOKEN 机制\n   */\n   /// @dev 留言信息结构体\n   struct Message {\n       address account;  // 留言者的地址\n       string content;  // 留言的内容\n   }\n\n   // 通过地址查找留言\n   mapping(address => Message) public messages;\n\n   address[] accounts;\n\n   /// @dev 添加留言\n   function setMessage (address _account,string _content) public {\n      Message message = messages[_account];\n      message.content  = _content;\n      message.account = _account;\n      accounts.push(_account) -1;\n   }\n\n   /// @dev 获取留言\n   function getMessageContent (address _account) public view returns(string) {\n      Message message = messages[_account];\n      return message.content;\n   }\n\n   /// @dev 获取总的用户数\n   function getCounts () public view returns(uint){\n       return accounts.length;\n   }\n\n\n}\n",
  "sourcePath": "/home/jason/message-board/contracts/MessageBoard.sol",
  "compiler": {
    "name": "solc",
    "version": "0.4.21+commit.dfe3193c.Emscripten.clang"
  },
  "schemaVersion": "2.0.0",
  "updatedAt": "2018-04-20T01:57:08.260Z"
}